{
  "contractName": "FlightBookingContract",
  "abi": [
    {
      "inputs": [],
      "stateMutability": "nonpayable",
      "type": "constructor"
    },
    {
      "anonymous": false,
      "inputs": [
        {
          "indexed": false,
          "internalType": "uint256",
          "name": "bookingId",
          "type": "uint256"
        },
        {
          "indexed": false,
          "internalType": "address",
          "name": "traveler",
          "type": "address"
        },
        {
          "indexed": false,
          "internalType": "string",
          "name": "flightId",
          "type": "string"
        },
        {
          "indexed": false,
          "internalType": "uint256",
          "name": "passengers",
          "type": "uint256"
        }
      ],
      "name": "BookingCreated",
      "type": "event"
    },
    {
      "anonymous": false,
      "inputs": [
        {
          "indexed": false,
          "internalType": "uint256",
          "name": "bookingId",
          "type": "uint256"
        }
      ],
      "name": "BookingRefunded",
      "type": "event"
    },
    {
      "anonymous": false,
      "inputs": [
        {
          "indexed": false,
          "internalType": "string",
          "name": "flightId",
          "type": "string"
        }
      ],
      "name": "FlightAdded",
      "type": "event"
    },
    {
      "anonymous": false,
      "inputs": [
        {
          "indexed": false,
          "internalType": "string",
          "name": "flightId",
          "type": "string"
        }
      ],
      "name": "FlightRemoved",
      "type": "event"
    },
    {
      "anonymous": false,
      "inputs": [
        {
          "indexed": false,
          "internalType": "string",
          "name": "flightId",
          "type": "string"
        }
      ],
      "name": "FlightUpdated",
      "type": "event"
    },
    {
      "anonymous": false,
      "inputs": [
        {
          "indexed": true,
          "internalType": "address",
          "name": "previousOwner",
          "type": "address"
        },
        {
          "indexed": true,
          "internalType": "address",
          "name": "newOwner",
          "type": "address"
        }
      ],
      "name": "OwnershipTransferred",
      "type": "event"
    },
    {
      "anonymous": false,
      "inputs": [
        {
          "indexed": false,
          "internalType": "address",
          "name": "tokenAddress",
          "type": "address"
        }
      ],
      "name": "TokenAdded",
      "type": "event"
    },
    {
      "anonymous": false,
      "inputs": [
        {
          "indexed": false,
          "internalType": "address",
          "name": "tokenAddress",
          "type": "address"
        }
      ],
      "name": "TokenRemoved",
      "type": "event"
    },
    {
      "inputs": [],
      "name": "bookingCounter",
      "outputs": [
        {
          "internalType": "uint256",
          "name": "",
          "type": "uint256"
        }
      ],
      "stateMutability": "view",
      "type": "function"
    },
    {
      "inputs": [
        {
          "internalType": "uint256",
          "name": "",
          "type": "uint256"
        }
      ],
      "name": "bookings",
      "outputs": [
        {
          "internalType": "address",
          "name": "traveler",
          "type": "address"
        },
        {
          "internalType": "string",
          "name": "flightId",
          "type": "string"
        },
        {
          "internalType": "uint256",
          "name": "passengers",
          "type": "uint256"
        },
        {
          "internalType": "uint256",
          "name": "totalPrice",
          "type": "uint256"
        },
        {
          "internalType": "uint256",
          "name": "bookingTime",
          "type": "uint256"
        },
        {
          "internalType": "bool",
          "name": "isRefunded",
          "type": "bool"
        }
      ],
      "stateMutability": "view",
      "type": "function"
    },
    {
      "inputs": [
        {
          "internalType": "uint256",
          "name": "",
          "type": "uint256"
        }
      ],
      "name": "flightIds",
      "outputs": [
        {
          "internalType": "string",
          "name": "",
          "type": "string"
        }
      ],
      "stateMutability": "view",
      "type": "function"
    },
    {
      "inputs": [
        {
          "internalType": "string",
          "name": "",
          "type": "string"
        }
      ],
      "name": "flights",
      "outputs": [
        {
          "internalType": "string",
          "name": "id",
          "type": "string"
        },
        {
          "internalType": "string",
          "name": "departureCity",
          "type": "string"
        },
        {
          "internalType": "string",
          "name": "arrivalCity",
          "type": "string"
        },
        {
          "internalType": "string",
          "name": "departureTime",
          "type": "string"
        },
        {
          "internalType": "string",
          "name": "arrivalTime",
          "type": "string"
        },
        {
          "internalType": "string",
          "name": "date",
          "type": "string"
        },
        {
          "internalType": "uint256",
          "name": "priceInWei",
          "type": "uint256"
        },
        {
          "internalType": "uint256",
          "name": "availableSeats",
          "type": "uint256"
        },
        {
          "internalType": "bool",
          "name": "isActive",
          "type": "bool"
        }
      ],
      "stateMutability": "view",
      "type": "function"
    },
    {
      "inputs": [],
      "name": "owner",
      "outputs": [
        {
          "internalType": "address",
          "name": "",
          "type": "address"
        }
      ],
      "stateMutability": "view",
      "type": "function"
    },
    {
      "inputs": [],
      "name": "renounceOwnership",
      "outputs": [],
      "stateMutability": "nonpayable",
      "type": "function"
    },
    {
      "inputs": [
        {
          "internalType": "address",
          "name": "",
          "type": "address"
        }
      ],
      "name": "supportedTokens",
      "outputs": [
        {
          "internalType": "bool",
          "name": "",
          "type": "bool"
        }
      ],
      "stateMutability": "view",
      "type": "function"
    },
    {
      "inputs": [
        {
          "internalType": "address",
          "name": "newOwner",
          "type": "address"
        }
      ],
      "name": "transferOwnership",
      "outputs": [],
      "stateMutability": "nonpayable",
      "type": "function"
    },
    {
      "inputs": [
        {
          "internalType": "string",
          "name": "_id",
          "type": "string"
        },
        {
          "internalType": "string",
          "name": "_departureCity",
          "type": "string"
        },
        {
          "internalType": "string",
          "name": "_arrivalCity",
          "type": "string"
        },
        {
          "internalType": "string",
          "name": "_departureTime",
          "type": "string"
        },
        {
          "internalType": "string",
          "name": "_arrivalTime",
          "type": "string"
        },
        {
          "internalType": "string",
          "name": "_date",
          "type": "string"
        },
        {
          "internalType": "uint256",
          "name": "_priceInWei",
          "type": "uint256"
        },
        {
          "internalType": "uint256",
          "name": "_availableSeats",
          "type": "uint256"
        }
      ],
      "name": "addFlight",
      "outputs": [],
      "stateMutability": "nonpayable",
      "type": "function"
    },
    {
      "inputs": [
        {
          "internalType": "string",
          "name": "_id",
          "type": "string"
        },
        {
          "internalType": "uint256",
          "name": "_priceInWei",
          "type": "uint256"
        },
        {
          "internalType": "uint256",
          "name": "_availableSeats",
          "type": "uint256"
        },
        {
          "internalType": "bool",
          "name": "_isActive",
          "type": "bool"
        }
      ],
      "name": "updateFlight",
      "outputs": [],
      "stateMutability": "nonpayable",
      "type": "function"
    },
    {
      "inputs": [
        {
          "internalType": "string",
          "name": "_id",
          "type": "string"
        }
      ],
      "name": "removeFlight",
      "outputs": [],
      "stateMutability": "nonpayable",
      "type": "function"
    },
    {
      "inputs": [
        {
          "internalType": "string",
          "name": "_flightId",
          "type": "string"
        },
        {
          "internalType": "uint256",
          "name": "_passengers",
          "type": "uint256"
        }
      ],
      "name": "bookFlightWithEth",
      "outputs": [],
      "stateMutability": "payable",
      "type": "function"
    },
    {
      "inputs": [
        {
          "internalType": "string",
          "name": "_flightId",
          "type": "string"
        },
        {
          "internalType": "uint256",
          "name": "_passengers",
          "type": "uint256"
        },
        {
          "internalType": "address",
          "name": "_tokenAddress",
          "type": "address"
        },
        {
          "internalType": "uint256",
          "name": "_tokenAmount",
          "type": "uint256"
        }
      ],
      "name": "bookFlightWithToken",
      "outputs": [],
      "stateMutability": "nonpayable",
      "type": "function"
    },
    {
      "inputs": [
        {
          "internalType": "uint256",
          "name": "_bookingId",
          "type": "uint256"
        }
      ],
      "name": "refundBooking",
      "outputs": [],
      "stateMutability": "nonpayable",
      "type": "function"
    },
    {
      "inputs": [
        {
          "internalType": "address",
          "name": "_tokenAddress",
          "type": "address"
        }
      ],
      "name": "addSupportedToken",
      "outputs": [],
      "stateMutability": "nonpayable",
      "type": "function"
    },
    {
      "inputs": [
        {
          "internalType": "address",
          "name": "_tokenAddress",
          "type": "address"
        }
      ],
      "name": "removeSupportedToken",
      "outputs": [],
      "stateMutability": "nonpayable",
      "type": "function"
    },
    {
      "inputs": [],
      "name": "getAllFlightIds",
      "outputs": [
        {
          "internalType": "string[]",
          "name": "",
          "type": "string[]"
        }
      ],
      "stateMutability": "view",
      "type": "function"
    },
    {
      "inputs": [],
      "name": "getActiveFlights",
      "outputs": [
        {
          "internalType": "string[]",
          "name": "",
          "type": "string[]"
        }
      ],
      "stateMutability": "view",
      "type": "function"
    },
    {
      "inputs": [
        {
          "internalType": "address",
          "name": "_traveler",
          "type": "address"
        }
      ],
      "name": "getUserBookings",
      "outputs": [
        {
          "internalType": "uint256[]",
          "name": "",
          "type": "uint256[]"
        }
      ],
      "stateMutability": "view",
      "type": "function"
    },
    {
      "inputs": [
        {
          "internalType": "uint256",
          "name": "_amount",
          "type": "uint256"
        }
      ],
      "name": "withdrawEth",
      "outputs": [],
      "stateMutability": "nonpayable",
      "type": "function"
    },
    {
      "inputs": [
        {
          "internalType": "address",
          "name": "_tokenAddress",
          "type": "address"
        },
        {
          "internalType": "uint256",
          "name": "_amount",
          "type": "uint256"
        }
      ],
      "name": "withdrawTokens",
      "outputs": [],
      "stateMutability": "nonpayable",
      "type": "function"
    }
  ],
  "bytecode": "0x60806040523480156200001157600080fd5b5062000032620000266200004060201b60201c565b6200004860201b60201c565b60016004819055506200010c565b600033905090565b60008060009054906101000a900473ffffffffffffffffffffffffffffffffffffffff169050816000806101000a81548173ffffffffffffffffffffffffffffffffffffffff021916908373ffffffffffffffffffffffffffffffffffffffff1602179055508173ffffffffffffffffffffffffffffffffffffffff168173ffffffffffffffffffffffffffffffffffffffff167f8be0079c531659141344cd1fd0a4f28419497f9722a3daafe3b4186f6b6457e060405160405180910390a35050565b6137bd806200011c6000396000f3fe60806040526004361061012a5760003560e01c8063912e3f02116100ab578063d3c503de1161006f578063d3c503de146103be578063dff7be1d146103e7578063e68fe6b214610412578063ef3197c81461043b578063f0690d7e14610478578063f2fde38b146104bd5761012a565b8063912e3f02146102db578063b4733b0a14610304578063c311d04914610341578063c389ba001461036a578063d287ac42146103935761012a565b806368c4ac26116100f257806368c4ac261461020a5780636d69fcaf14610247578063715018a61461027057806376319190146102875780638da5cb5b146102b05761012a565b806305ec52531461012f57806306b091f91461015857806310e49cc6146101815780631dab301e1461019d5780635dad3811146101df575b600080fd5b34801561013b57600080fd5b5061015660048036038101906101519190612315565b6104e6565b005b34801561016457600080fd5b5061017f600480360381019061017a91906124d1565b6106f1565b005b61019b60048036038101906101969190612511565b610883565b005b3480156101a957600080fd5b506101c460048036038101906101bf919061256d565b610bba565b6040516101d696959493929190612652565b60405180910390f35b3480156101eb57600080fd5b506101f4610cab565b60405161020191906127c6565b60405180910390f35b34801561021657600080fd5b50610231600480360381019061022c91906127e8565b610d84565b60405161023e9190612815565b60405180910390f35b34801561025357600080fd5b5061026e600480360381019061026991906127e8565b610da4565b005b34801561027c57600080fd5b50610285610e3e565b005b34801561029357600080fd5b506102ae60048036038101906102a991906127e8565b610e52565b005b3480156102bc57600080fd5b506102c5610eec565b6040516102d29190612830565b60405180910390f35b3480156102e757600080fd5b5061030260048036038101906102fd919061284b565b610f15565b005b34801561031057600080fd5b5061032b6004803603810190610326919061256d565b6112e5565b60405161033891906128ce565b60405180910390f35b34801561034d57600080fd5b506103686004803603810190610363919061256d565b611391565b005b34801561037657600080fd5b50610391600480360381019061038c91906128f0565b61142d565b005b34801561039f57600080fd5b506103a8611519565b6040516103b59190612939565b60405180910390f35b3480156103ca57600080fd5b506103e560048036038101906103e0919061256d565b61151f565b005b3480156103f357600080fd5b506103fc61172f565b60405161040991906127c6565b60405180910390f35b34801561041e57600080fd5b5061043960048036038101906104349190612980565b61195b565b005b34801561044757600080fd5b50610462600480360381019061045d91906127e8565b611a61565b60405161046f9190612ac1565b60405180910390f35b34801561048457600080fd5b5061049f600480360381019061049a91906128f0565b611c17565b6040516104b499989796959493929190612ae3565b60405180910390f35b3480156104c957600080fd5b506104e460048036038101906104df91906127e8565b611fb8565b005b6104ee61203b565b60006001896040516105009190612bd6565b9081526020016040518091039020600001805461051c90612c1c565b90501461055e576040517f08c379a000000000000000000000000000000000000000000000000000000000815260040161055590612c99565b60405180910390fd5b604051806101200160405280898152602001888152602001878152602001868152602001858152602001848152602001838152602001828152602001600115158152506001896040516105b19190612bd6565b908152602001604051809103902060008201518160000190816105d49190612e65565b5060208201518160010190816105ea9190612e65565b5060408201518160020190816106009190612e65565b5060608201518160030190816106169190612e65565b50608082015181600401908161062c9190612e65565b5060a08201518160050190816106429190612e65565b5060c0820151816006015560e082015181600701556101008201518160080160006101000a81548160ff0219169083151502179055509050506002889080600181540180825580915050600190039060005260206000200160009091909190915090816106af9190612e65565b507f70914429f854320eeac48e4da635e66c8d7de6ff1473455ba967513db80a48b7886040516106df91906128ce565b60405180910390a15050505050505050565b6106f961203b565b60008290508073ffffffffffffffffffffffffffffffffffffffff166370a08231306040518263ffffffff1660e01b81526004016107379190612830565b602060405180830381865afa158015610754573d6000803e3d6000fd5b505050506040513d601f19601f820116820180604052508101906107789190612f4c565b8211156107ba576040517f08c379a00000000000000000000000000000000000000000000000000000000081526004016107b190612fc5565b60405180910390fd5b8073ffffffffffffffffffffffffffffffffffffffff1663a9059cbb6107de610eec565b846040518363ffffffff1660e01b81526004016107fc929190612fe5565b6020604051808303816000875af115801561081b573d6000803e3d6000fd5b505050506040513d601f19601f8201168201806040525081019061083f9190613023565b61087e576040517f08c379a00000000000000000000000000000000000000000000000000000000081526004016108759061309c565b60405180910390fd5b505050565b60006001836040516108959190612bd6565b9081526020016040518091039020905060008160000180546108b690612c1c565b9050116108f8576040517f08c379a00000000000000000000000000000000000000000000000000000000081526004016108ef90613108565b60405180910390fd5b8060080160009054906101000a900460ff16610949576040517f08c379a000000000000000000000000000000000000000000000000000000000815260040161094090613174565b60405180910390fd5b8181600701541015610990576040517f08c379a0000000000000000000000000000000000000000000000000000000008152600401610987906131e0565b60405180910390fd5b60008282600601546109a2919061322f565b9050803410156109e7576040517f08c379a00000000000000000000000000000000000000000000000000000000081526004016109de906132bd565b60405180910390fd5b6040518060c001604052803373ffffffffffffffffffffffffffffffffffffffff1681526020018581526020018481526020018281526020014281526020016000151581525060036000600454815260200190815260200160002060008201518160000160006101000a81548173ffffffffffffffffffffffffffffffffffffffff021916908373ffffffffffffffffffffffffffffffffffffffff1602179055506020820151816001019081610a9e9190612e65565b5060408201518160020155606082015181600301556080820151816004015560a08201518160050160006101000a81548160ff02191690831515021790555090505082826007016000828254610af491906132dd565b9250508190555060008134610b0991906132dd565b90506000811115610b5c573373ffffffffffffffffffffffffffffffffffffffff166108fc829081150290604051600060405180830381858888f19350505050158015610b5a573d6000803e3d6000fd5b505b7f0c69e33b9f27d195b395fc775a850ef8fcc95c43a7f6d4fcfedc12e02c112cb9600454338787604051610b939493929190613311565b60405180910390a160046000815480929190610bae9061335d565b91905055505050505050565b60036020528060005260406000206000915090508060000160009054906101000a900473ffffffffffffffffffffffffffffffffffffffff1690806001018054610c0390612c1c565b80601f0160208091040260200160405190810160405280929190818152602001828054610c2f90612c1c565b8015610c7c5780601f10610c5157610100808354040283529160200191610c7c565b820191906000526020600020905b815481529060010190602001808311610c5f57829003601f168201915b5050505050908060020154908060030154908060040154908060050160009054906101000a900460ff16905086565b60606002805480602002602001604051908101604052809291908181526020016000905b82821015610d7b578382906000526020600020018054610cee90612c1c565b80601f0160208091040260200160405190810160405280929190818152602001828054610d1a90612c1c565b8015610d675780601f10610d3c57610100808354040283529160200191610d67565b820191906000526020600020905b815481529060010190602001808311610d4a57829003601f168201915b505050505081526020019060010190610ccf565b50505050905090565b60056020528060005260406000206000915054906101000a900460ff1681565b610dac61203b565b6001600560008373ffffffffffffffffffffffffffffffffffffffff1673ffffffffffffffffffffffffffffffffffffffff16815260200190815260200160002060006101000a81548160ff0219169083151502179055507f784c8f4dbf0ffedd6e72c76501c545a70f8b203b30a26ce542bf92ba87c248a481604051610e339190612830565b60405180910390a150565b610e4661203b565b610e5060006120b9565b565b610e5a61203b565b6000600560008373ffffffffffffffffffffffffffffffffffffffff1673ffffffffffffffffffffffffffffffffffffffff16815260200190815260200160002060006101000a81548160ff0219169083151502179055507f4c910b69fe65a61f7531b9c5042b2329ca7179c77290aa7e2eb3afa3c8511fd381604051610ee19190612830565b60405180910390a150565b60008060009054906101000a900473ffffffffffffffffffffffffffffffffffffffff16905090565b600560008373ffffffffffffffffffffffffffffffffffffffff1673ffffffffffffffffffffffffffffffffffffffff16815260200190815260200160002060009054906101000a900460ff16610fa1576040517f08c379a0000000000000000000000000000000000000000000000000000000008152600401610f98906133f1565b60405180910390fd5b6000600185604051610fb39190612bd6565b908152602001604051809103902090506000816000018054610fd490612c1c565b905011611016576040517f08c379a000000000000000000000000000000000000000000000000000000000815260040161100d90613108565b60405180910390fd5b8060080160009054906101000a900460ff16611067576040517f08c379a000000000000000000000000000000000000000000000000000000000815260040161105e90613174565b60405180910390fd5b83816007015410156110ae576040517f08c379a00000000000000000000000000000000000000000000000000000000081526004016110a5906131e0565b60405180910390fd5b60008390508073ffffffffffffffffffffffffffffffffffffffff166323b872dd3330866040518463ffffffff1660e01b81526004016110f093929190613411565b6020604051808303816000875af115801561110f573d6000803e3d6000fd5b505050506040513d601f19601f820116820180604052508101906111339190613023565b611172576040517f08c379a00000000000000000000000000000000000000000000000000000000081526004016111699061309c565b60405180910390fd5b6040518060c001604052803373ffffffffffffffffffffffffffffffffffffffff1681526020018781526020018681526020018481526020014281526020016000151581525060036000600454815260200190815260200160002060008201518160000160006101000a81548173ffffffffffffffffffffffffffffffffffffffff021916908373ffffffffffffffffffffffffffffffffffffffff16021790555060208201518160010190816112299190612e65565b5060408201518160020155606082015181600301556080820151816004015560a08201518160050160006101000a81548160ff0219169083151502179055509050508482600701600082825461127f91906132dd565b925050819055507f0c69e33b9f27d195b395fc775a850ef8fcc95c43a7f6d4fcfedc12e02c112cb96004543388886040516112bd9493929190613311565b60405180910390a1600460008154809291906112d89061335d565b9190505550505050505050565b600281815481106112f557600080fd5b90600052602060002001600091509050805461131090612c1c565b80601f016020809104026020016040519081016040528092919081815260200182805461133c90612c1c565b80156113895780601f1061135e57610100808354040283529160200191611389565b820191906000526020600020905b81548152906001019060200180831161136c57829003601f168201915b505050505081565b61139961203b565b478111156113dc576040517f08c379a00000000000000000000000000000000000000000000000000000000081526004016113d390613494565b60405180910390fd5b6113e4610eec565b73ffffffffffffffffffffffffffffffffffffffff166108fc829081150290604051600060405180830381858888f19350505050158015611429573d6000803e3d6000fd5b5050565b61143561203b565b60006001826040516114479190612bd6565b9081526020016040518091039020600001805461146390612c1c565b9050116114a5576040517f08c379a000000000000000000000000000000000000000000000000000000000815260040161149c90613108565b60405180910390fd5b60006001826040516114b79190612bd6565b908152602001604051809103902060080160006101000a81548160ff0219169083151502179055507f722daefb8e4ee2fb8a919dd2a24e137654415c15bdb205efc143560c085858f28160405161150e91906128ce565b60405180910390a150565b60045481565b61152761203b565b6000600360008381526020019081526020016000209050600073ffffffffffffffffffffffffffffffffffffffff168160000160009054906101000a900473ffffffffffffffffffffffffffffffffffffffff1673ffffffffffffffffffffffffffffffffffffffff16036115d1576040517f08c379a00000000000000000000000000000000000000000000000000000000081526004016115c890613500565b60405180910390fd5b8060050160009054906101000a900460ff1615611623576040517f08c379a000000000000000000000000000000000000000000000000000000000815260040161161a9061356c565b60405180910390fd5b60018160050160006101000a81548160ff0219169083151502179055506000600182600101604051611655919061360f565b90815260200160405180910390209050816002015481600701600082825461167d9190613626565b925050819055508160000160009054906101000a900473ffffffffffffffffffffffffffffffffffffffff1673ffffffffffffffffffffffffffffffffffffffff166108fc83600301549081150290604051600060405180830381858888f193505050501580156116f2573d6000803e3d6000fd5b507ff8a874b423d568fa27528706d75ce4e415f40ef2e5cbe8075a791a74498c0960836040516117229190612939565b60405180910390a1505050565b60606000805b6002805490508110156117b5576001600282815481106117585761175761365a565b5b9060005260206000200160405161176f919061360f565b908152602001604051809103902060080160009054906101000a900460ff16156117a257818061179e9061335d565b9250505b80806117ad9061335d565b915050611735565b5060008167ffffffffffffffff8111156117d2576117d16121b4565b5b60405190808252806020026020018201604052801561180557816020015b60608152602001906001900390816117f05790505b5090506000805b6002805490508110156119515760016002828154811061182f5761182e61365a565b5b90600052602060002001604051611846919061360f565b908152602001604051809103902060080160009054906101000a900460ff161561193e576002818154811061187e5761187d61365a565b5b90600052602060002001805461189390612c1c565b80601f01602080910402602001604051908101604052809291908181526020018280546118bf90612c1c565b801561190c5780601f106118e15761010080835404028352916020019161190c565b820191906000526020600020905b8154815290600101906020018083116118ef57829003601f168201915b50505050508383815181106119245761192361365a565b5b6020026020010181905250818061193a9061335d565b9250505b80806119499061335d565b91505061180c565b5081935050505090565b61196361203b565b60006001856040516119759190612bd6565b9081526020016040518091039020600001805461199190612c1c565b9050116119d3576040517f08c379a00000000000000000000000000000000000000000000000000000000081526004016119ca90613108565b60405180910390fd5b60006001856040516119e59190612bd6565b90815260200160405180910390209050838160060181905550828160070181905550818160080160006101000a81548160ff0219169083151502179055507fd083309e31e2b94991ebc7764188173db909c0c9afd1a998ca3ecfe195a6dd3985604051611a5291906128ce565b60405180910390a15050505050565b6060600080600190505b600454811015611b00578373ffffffffffffffffffffffffffffffffffffffff166003600083815260200190815260200160002060000160009054906101000a900473ffffffffffffffffffffffffffffffffffffffff1673ffffffffffffffffffffffffffffffffffffffff1603611aed578180611ae99061335d565b9250505b8080611af89061335d565b915050611a6b565b5060008167ffffffffffffffff811115611b1d57611b1c6121b4565b5b604051908082528060200260200182016040528015611b4b5781602001602082028036833780820191505090505b509050600080600190505b600454811015611c0b578573ffffffffffffffffffffffffffffffffffffffff166003600083815260200190815260200160002060000160009054906101000a900473ffffffffffffffffffffffffffffffffffffffff1673ffffffffffffffffffffffffffffffffffffffff1603611bf85780838381518110611bdd57611bdc61365a565b5b6020026020010181815250508180611bf49061335d565b9250505b8080611c039061335d565b915050611b56565b50819350505050919050565b600181805160208101820180518482526020830160208501208183528095505050505050600091509050806000018054611c5090612c1c565b80601f0160208091040260200160405190810160405280929190818152602001828054611c7c90612c1c565b8015611cc95780601f10611c9e57610100808354040283529160200191611cc9565b820191906000526020600020905b815481529060010190602001808311611cac57829003601f168201915b505050505090806001018054611cde90612c1c565b80601f0160208091040260200160405190810160405280929190818152602001828054611d0a90612c1c565b8015611d575780601f10611d2c57610100808354040283529160200191611d57565b820191906000526020600020905b815481529060010190602001808311611d3a57829003601f168201915b505050505090806002018054611d6c90612c1c565b80601f0160208091040260200160405190810160405280929190818152602001828054611d9890612c1c565b8015611de55780601f10611dba57610100808354040283529160200191611de5565b820191906000526020600020905b815481529060010190602001808311611dc857829003601f168201915b505050505090806003018054611dfa90612c1c565b80601f0160208091040260200160405190810160405280929190818152602001828054611e2690612c1c565b8015611e735780601f10611e4857610100808354040283529160200191611e73565b820191906000526020600020905b815481529060010190602001808311611e5657829003601f168201915b505050505090806004018054611e8890612c1c565b80601f0160208091040260200160405190810160405280929190818152602001828054611eb490612c1c565b8015611f015780601f10611ed657610100808354040283529160200191611f01565b820191906000526020600020905b815481529060010190602001808311611ee457829003601f168201915b505050505090806005018054611f1690612c1c565b80601f0160208091040260200160405190810160405280929190818152602001828054611f4290612c1c565b8015611f8f5780601f10611f6457610100808354040283529160200191611f8f565b820191906000526020600020905b815481529060010190602001808311611f7257829003601f168201915b5050505050908060060154908060070154908060080160009054906101000a900460ff16905089565b611fc061203b565b600073ffffffffffffffffffffffffffffffffffffffff168173ffffffffffffffffffffffffffffffffffffffff160361202f576040517f08c379a0000000000000000000000000000000000000000000000000000000008152600401612026906136fb565b60405180910390fd5b612038816120b9565b50565b61204361217d565b73ffffffffffffffffffffffffffffffffffffffff16612061610eec565b73ffffffffffffffffffffffffffffffffffffffff16146120b7576040517f08c379a00000000000000000000000000000000000000000000000000000000081526004016120ae90613767565b60405180910390fd5b565b60008060009054906101000a900473ffffffffffffffffffffffffffffffffffffffff169050816000806101000a81548173ffffffffffffffffffffffffffffffffffffffff021916908373ffffffffffffffffffffffffffffffffffffffff1602179055508173ffffffffffffffffffffffffffffffffffffffff168173ffffffffffffffffffffffffffffffffffffffff167f8be0079c531659141344cd1fd0a4f28419497f9722a3daafe3b4186f6b6457e060405160405180910390a35050565b600033905090565b6000604051905090565b600080fd5b600080fd5b600080fd5b600080fd5b6000601f19601f8301169050919050565b7f4e487b7100000000000000000000000000000000000000000000000000000000600052604160045260246000fd5b6121ec826121a3565b810181811067ffffffffffffffff8211171561220b5761220a6121b4565b5b80604052505050565b600061221e612185565b905061222a82826121e3565b919050565b600067ffffffffffffffff82111561224a576122496121b4565b5b612253826121a3565b9050602081019050919050565b82818337600083830152505050565b600061228261227d8461222f565b612214565b90508281526020810184848401111561229e5761229d61219e565b5b6122a9848285612260565b509392505050565b600082601f8301126122c6576122c5612199565b5b81356122d684826020860161226f565b91505092915050565b6000819050919050565b6122f2816122df565b81146122fd57600080fd5b50565b60008135905061230f816122e9565b92915050565b600080600080600080600080610100898b0312156123365761233561218f565b5b600089013567ffffffffffffffff81111561235457612353612194565b5b6123608b828c016122b1565b985050602089013567ffffffffffffffff81111561238157612380612194565b5b61238d8b828c016122b1565b975050604089013567ffffffffffffffff8111156123ae576123ad612194565b5b6123ba8b828c016122b1565b965050606089013567ffffffffffffffff8111156123db576123da612194565b5b6123e78b828c016122b1565b955050608089013567ffffffffffffffff81111561240857612407612194565b5b6124148b828c016122b1565b94505060a089013567ffffffffffffffff81111561243557612434612194565b5b6124418b828c016122b1565b93505060c06124528b828c01612300565b92505060e06124638b828c01612300565b9150509295985092959890939650565b600073ffffffffffffffffffffffffffffffffffffffff82169050919050565b600061249e82612473565b9050919050565b6124ae81612493565b81146124b957600080fd5b50565b6000813590506124cb816124a5565b92915050565b600080604083850312156124e8576124e761218f565b5b60006124f6858286016124bc565b925050602061250785828601612300565b9150509250929050565b600080604083850312156125285761252761218f565b5b600083013567ffffffffffffffff81111561254657612545612194565b5b612552858286016122b1565b925050602061256385828601612300565b9150509250929050565b6000602082840312156125835761258261218f565b5b600061259184828501612300565b91505092915050565b6125a381612493565b82525050565b600081519050919050565b600082825260208201905092915050565b60005b838110156125e35780820151818401526020810190506125c8565b60008484015250505050565b60006125fa826125a9565b61260481856125b4565b93506126148185602086016125c5565b61261d816121a3565b840191505092915050565b612631816122df565b82525050565b60008115159050919050565b61264c81612637565b82525050565b600060c082019050612667600083018961259a565b818103602083015261267981886125ef565b90506126886040830187612628565b6126956060830186612628565b6126a26080830185612628565b6126af60a0830184612643565b979650505050505050565b600081519050919050565b600082825260208201905092915050565b6000819050602082019050919050565b600082825260208201905092915050565b6000612702826125a9565b61270c81856126e6565b935061271c8185602086016125c5565b612725816121a3565b840191505092915050565b600061273c83836126f7565b905092915050565b6000602082019050919050565b600061275c826126ba565b61276681856126c5565b935083602082028501612778856126d6565b8060005b858110156127b457848403895281516127958582612730565b94506127a083612744565b925060208a0199505060018101905061277c565b50829750879550505050505092915050565b600060208201905081810360008301526127e08184612751565b905092915050565b6000602082840312156127fe576127fd61218f565b5b600061280c848285016124bc565b91505092915050565b600060208201905061282a6000830184612643565b92915050565b6000602082019050612845600083018461259a565b92915050565b600080600080608085870312156128655761286461218f565b5b600085013567ffffffffffffffff81111561288357612882612194565b5b61288f878288016122b1565b94505060206128a087828801612300565b93505060406128b1878288016124bc565b92505060606128c287828801612300565b91505092959194509250565b600060208201905081810360008301526128e881846125ef565b905092915050565b6000602082840312156129065761290561218f565b5b600082013567ffffffffffffffff81111561292457612923612194565b5b612930848285016122b1565b91505092915050565b600060208201905061294e6000830184612628565b92915050565b61295d81612637565b811461296857600080fd5b50565b60008135905061297a81612954565b92915050565b6000806000806080858703121561299a5761299961218f565b5b600085013567ffffffffffffffff8111156129b8576129b7612194565b5b6129c4878288016122b1565b94505060206129d587828801612300565b93505060406129e687828801612300565b92505060606129f78782880161296b565b91505092959194509250565b600081519050919050565b600082825260208201905092915050565b6000819050602082019050919050565b612a38816122df565b82525050565b6000612a4a8383612a2f565b60208301905092915050565b6000602082019050919050565b6000612a6e82612a03565b612a788185612a0e565b9350612a8383612a1f565b8060005b83811015612ab4578151612a9b8882612a3e565b9750612aa683612a56565b925050600181019050612a87565b5085935050505092915050565b60006020820190508181036000830152612adb8184612a63565b905092915050565b6000610120820190508181036000830152612afe818c6125ef565b90508181036020830152612b12818b6125ef565b90508181036040830152612b26818a6125ef565b90508181036060830152612b3a81896125ef565b90508181036080830152612b4e81886125ef565b905081810360a0830152612b6281876125ef565b9050612b7160c0830186612628565b612b7e60e0830185612628565b612b8c610100830184612643565b9a9950505050505050505050565b600081905092915050565b6000612bb0826125a9565b612bba8185612b9a565b9350612bca8185602086016125c5565b80840191505092915050565b6000612be28284612ba5565b915081905092915050565b7f4e487b7100000000000000000000000000000000000000000000000000000000600052602260045260246000fd5b60006002820490506001821680612c3457607f821691505b602082108103612c4757612c46612bed565b5b50919050565b7f466c6967687420616c7265616479206578697374730000000000000000000000600082015250565b6000612c836015836125b4565b9150612c8e82612c4d565b602082019050919050565b60006020820190508181036000830152612cb281612c76565b9050919050565b60008190508160005260206000209050919050565b60006020601f8301049050919050565b600082821b905092915050565b600060088302612d1b7fffffffffffffffffffffffffffffffffffffffffffffffffffffffffffffffff82612cde565b612d258683612cde565b95508019841693508086168417925050509392505050565b6000819050919050565b6000612d62612d5d612d58846122df565b612d3d565b6122df565b9050919050565b6000819050919050565b612d7c83612d47565b612d90612d8882612d69565b848454612ceb565b825550505050565b600090565b612da5612d98565b612db0818484612d73565b505050565b5b81811015612dd457612dc9600082612d9d565b600181019050612db6565b5050565b601f821115612e1957612dea81612cb9565b612df384612cce565b81016020851015612e02578190505b612e16612e0e85612cce565b830182612db5565b50505b505050565b600082821c905092915050565b6000612e3c60001984600802612e1e565b1980831691505092915050565b6000612e558383612e2b565b9150826002028217905092915050565b612e6e826125a9565b67ffffffffffffffff811115612e8757612e866121b4565b5b612e918254612c1c565b612e9c828285612dd8565b600060209050601f831160018114612ecf5760008415612ebd578287015190505b612ec78582612e49565b865550612f2f565b601f198416612edd86612cb9565b60005b82811015612f0557848901518255600182019150602085019450602081019050612ee0565b86831015612f225784890151612f1e601f891682612e2b565b8355505b6001600288020188555050505b505050505050565b600081519050612f46816122e9565b92915050565b600060208284031215612f6257612f6161218f565b5b6000612f7084828501612f37565b91505092915050565b7f496e73756666696369656e7420746f6b656e2062616c616e6365000000000000600082015250565b6000612faf601a836125b4565b9150612fba82612f79565b602082019050919050565b60006020820190508181036000830152612fde81612fa2565b9050919050565b6000604082019050612ffa600083018561259a565b6130076020830184612628565b9392505050565b60008151905061301d81612954565b92915050565b6000602082840312156130395761303861218f565b5b60006130478482850161300e565b91505092915050565b7f546f6b656e207472616e73666572206661696c65640000000000000000000000600082015250565b60006130866015836125b4565b915061309182613050565b602082019050919050565b600060208201905081810360008301526130b581613079565b9050919050565b7f466c6967687420646f6573206e6f742065786973740000000000000000000000600082015250565b60006130f26015836125b4565b91506130fd826130bc565b602082019050919050565b60006020820190508181036000830152613121816130e5565b9050919050565b7f466c69676874206973206e6f7420616374697665000000000000000000000000600082015250565b600061315e6014836125b4565b915061316982613128565b602082019050919050565b6000602082019050818103600083015261318d81613151565b9050919050565b7f4e6f7420656e6f75676820736561747320617661696c61626c65000000000000600082015250565b60006131ca601a836125b4565b91506131d582613194565b602082019050919050565b600060208201905081810360008301526131f9816131bd565b9050919050565b7f4e487b7100000000000000000000000000000000000000000000000000000000600052601160045260246000fd5b600061323a826122df565b9150613245836122df565b9250828202613253816122df565b9150828204841483151761326a57613269613200565b5b5092915050565b7f496e73756666696369656e74207061796d656e74000000000000000000000000600082015250565b60006132a76014836125b4565b91506132b282613271565b602082019050919050565b600060208201905081810360008301526132d68161329a565b9050919050565b60006132e8826122df565b91506132f3836122df565b925082820390508181111561330b5761330a613200565b5b92915050565b60006080820190506133266000830187612628565b613333602083018661259a565b818103604083015261334581856125ef565b90506133546060830184612628565b95945050505050565b6000613368826122df565b91507fffffffffffffffffffffffffffffffffffffffffffffffffffffffffffffffff820361339a57613399613200565b5b600182019050919050565b7f546f6b656e206e6f7420737570706f7274656400000000000000000000000000600082015250565b60006133db6013836125b4565b91506133e6826133a5565b602082019050919050565b6000602082019050818103600083015261340a816133ce565b9050919050565b6000606082019050613426600083018661259a565b613433602083018561259a565b6134406040830184612628565b949350505050565b7f496e73756666696369656e742062616c616e6365000000000000000000000000600082015250565b600061347e6014836125b4565b915061348982613448565b602082019050919050565b600060208201905081810360008301526134ad81613471565b9050919050565b7f426f6f6b696e6720646f6573206e6f7420657869737400000000000000000000600082015250565b60006134ea6016836125b4565b91506134f5826134b4565b602082019050919050565b60006020820190508181036000830152613519816134dd565b9050919050565b7f426f6f6b696e6720616c726561647920726566756e6465640000000000000000600082015250565b60006135566018836125b4565b915061356182613520565b602082019050919050565b6000602082019050818103600083015261358581613549565b9050919050565b6000815461359981612c1c565b6135a38186612b9a565b945060018216600081146135be57600181146135d357613606565b60ff1983168652811515820286019350613606565b6135dc85612cb9565b60005b838110156135fe578154818901526001820191506020810190506135df565b838801955050505b50505092915050565b600061361b828461358c565b915081905092915050565b6000613631826122df565b915061363c836122df565b925082820190508082111561365457613653613200565b5b92915050565b7f4e487b7100000000000000000000000000000000000000000000000000000000600052603260045260246000fd5b7f4f776e61626c653a206e6577206f776e657220697320746865207a65726f206160008201527f6464726573730000000000000000000000000000000000000000000000000000602082015250565b60006136e56026836125b4565b91506136f082613689565b604082019050919050565b60006020820190508181036000830152613714816136d8565b9050919050565b7f4f776e61626c653a2063616c6c6572206973206e6f7420746865206f776e6572600082015250565b60006137516020836125b4565b915061375c8261371b565b602082019050919050565b6000602082019050818103600083015261378081613744565b905091905056fea2646970667358221220e3b87a0583bb4c5cbde489bc5c4dbb673223fe3db30555be42b6716a7d14ea1064736f6c63430008110033",
  "immutableReferences": {},
  "source": "// SPDX-License-Identifier: MIT\r\npragma solidity ^0.8.0;\r\n\r\nimport \"@openzeppelin/contracts/token/ERC20/IERC20.sol\";\r\nimport \"@openzeppelin/contracts/access/Ownable.sol\";\r\n\r\n/**\r\n * @title FlightBookingContract\r\n * @dev Manages flight bookings with cryptocurrency payments\r\n */\r\ncontract FlightBookingContract is Ownable {\r\n    // Flight structure\r\n    struct Flight {\r\n        string id;\r\n        string departureCity;\r\n        string arrivalCity;\r\n        string departureTime;\r\n        string arrivalTime;\r\n        string date;\r\n        uint256 priceInWei;\r\n        uint256 availableSeats;\r\n        bool isActive;\r\n    }\r\n\r\n    // Booking structure\r\n    struct Booking {\r\n        address traveler;\r\n        string flightId;\r\n        uint256 passengers;\r\n        uint256 totalPrice;\r\n        uint256 bookingTime;\r\n        bool isRefunded;\r\n    }\r\n\r\n    // Mapping of flight IDs to Flight structs\r\n    mapping(string => Flight) public flights;\r\n\r\n    // Array of all flight IDs\r\n    string[] public flightIds;\r\n\r\n    // Mapping of booking IDs to Booking structs\r\n    mapping(uint256 => Booking) public bookings;\r\n\r\n    // Counter for booking IDs\r\n    uint256 public bookingCounter;\r\n\r\n    // Supported ERC20 tokens for payment\r\n    mapping(address => bool) public supportedTokens;\r\n\r\n    // Events\r\n    event FlightAdded(string flightId);\r\n    event FlightUpdated(string flightId);\r\n    event FlightRemoved(string flightId);\r\n    event BookingCreated(\r\n        uint256 bookingId,\r\n        address traveler,\r\n        string flightId,\r\n        uint256 passengers\r\n    );\r\n    event BookingRefunded(uint256 bookingId);\r\n    event TokenAdded(address tokenAddress);\r\n    event TokenRemoved(address tokenAddress);\r\n\r\n    /**\r\n     * @dev Constructor\r\n     */\r\n    constructor() {\r\n        bookingCounter = 1;\r\n    }\r\n\r\n    /**\r\n     * @dev Add a new flight\r\n     * @param _id Flight ID\r\n     * @param _departureCity Departure city\r\n     * @param _arrivalCity Arrival city\r\n     * @param _departureTime Departure time\r\n     * @param _arrivalTime Arrival time\r\n     * @param _date Flight date\r\n     * @param _priceInWei Price in Wei\r\n     * @param _availableSeats Number of available seats\r\n     */\r\n    function addFlight(\r\n        string memory _id,\r\n        string memory _departureCity,\r\n        string memory _arrivalCity,\r\n        string memory _departureTime,\r\n        string memory _arrivalTime,\r\n        string memory _date,\r\n        uint256 _priceInWei,\r\n        uint256 _availableSeats\r\n    ) external onlyOwner {\r\n        require(bytes(flights[_id].id).length == 0, \"Flight already exists\");\r\n\r\n        flights[_id] = Flight({\r\n            id: _id,\r\n            departureCity: _departureCity,\r\n            arrivalCity: _arrivalCity,\r\n            departureTime: _departureTime,\r\n            arrivalTime: _arrivalTime,\r\n            date: _date,\r\n            priceInWei: _priceInWei,\r\n            availableSeats: _availableSeats,\r\n            isActive: true\r\n        });\r\n\r\n        flightIds.push(_id);\r\n        emit FlightAdded(_id);\r\n    }\r\n\r\n    /**\r\n     * @dev Update an existing flight\r\n     * @param _id Flight ID\r\n     * @param _priceInWei New price in Wei\r\n     * @param _availableSeats New number of available seats\r\n     * @param _isActive Whether the flight is active\r\n     */\r\n    function updateFlight(\r\n        string memory _id,\r\n        uint256 _priceInWei,\r\n        uint256 _availableSeats,\r\n        bool _isActive\r\n    ) external onlyOwner {\r\n        require(bytes(flights[_id].id).length > 0, \"Flight does not exist\");\r\n\r\n        Flight storage flight = flights[_id];\r\n        flight.priceInWei = _priceInWei;\r\n        flight.availableSeats = _availableSeats;\r\n        flight.isActive = _isActive;\r\n\r\n        emit FlightUpdated(_id);\r\n    }\r\n\r\n    /**\r\n     * @dev Remove a flight\r\n     * @param _id Flight ID\r\n     */\r\n    function removeFlight(string memory _id) external onlyOwner {\r\n        require(bytes(flights[_id].id).length > 0, \"Flight does not exist\");\r\n\r\n        // Set flight as inactive instead of deleting\r\n        flights[_id].isActive = false;\r\n\r\n        emit FlightRemoved(_id);\r\n    }\r\n\r\n    /**\r\n     * @dev Book a flight with ETH\r\n     * @param _flightId Flight ID\r\n     * @param _passengers Number of passengers\r\n     */\r\n    function bookFlightWithEth(\r\n        string memory _flightId,\r\n        uint256 _passengers\r\n    ) external payable {\r\n        Flight storage flight = flights[_flightId];\r\n        require(bytes(flight.id).length > 0, \"Flight does not exist\");\r\n        require(flight.isActive, \"Flight is not active\");\r\n        require(\r\n            flight.availableSeats >= _passengers,\r\n            \"Not enough seats available\"\r\n        );\r\n\r\n        uint256 totalPrice = flight.priceInWei * _passengers;\r\n        require(msg.value >= totalPrice, \"Insufficient payment\");\r\n\r\n        // Create booking\r\n        bookings[bookingCounter] = Booking({\r\n            traveler: msg.sender,\r\n            flightId: _flightId,\r\n            passengers: _passengers,\r\n            totalPrice: totalPrice,\r\n            bookingTime: block.timestamp,\r\n            isRefunded: false\r\n        });\r\n\r\n        // Update available seats\r\n        flight.availableSeats -= _passengers;\r\n\r\n        // Refund excess payment\r\n        uint256 excess = msg.value - totalPrice;\r\n        if (excess > 0) {\r\n            payable(msg.sender).transfer(excess);\r\n        }\r\n\r\n        emit BookingCreated(bookingCounter, msg.sender, _flightId, _passengers);\r\n        bookingCounter++;\r\n    }\r\n\r\n    /**\r\n     * @dev Book a flight with ERC20 token\r\n     * @param _flightId Flight ID\r\n     * @param _passengers Number of passengers\r\n     * @param _tokenAddress Address of the ERC20 token\r\n     * @param _tokenAmount Amount of tokens to pay\r\n     */\r\n    function bookFlightWithToken(\r\n        string memory _flightId,\r\n        uint256 _passengers,\r\n        address _tokenAddress,\r\n        uint256 _tokenAmount\r\n    ) external {\r\n        require(supportedTokens[_tokenAddress], \"Token not supported\");\r\n\r\n        Flight storage flight = flights[_flightId];\r\n        require(bytes(flight.id).length > 0, \"Flight does not exist\");\r\n        require(flight.isActive, \"Flight is not active\");\r\n        require(\r\n            flight.availableSeats >= _passengers,\r\n            \"Not enough seats available\"\r\n        );\r\n\r\n        // Transfer tokens from user to contract\r\n        IERC20 token = IERC20(_tokenAddress);\r\n        require(\r\n            token.transferFrom(msg.sender, address(this), _tokenAmount),\r\n            \"Token transfer failed\"\r\n        );\r\n\r\n        // Create booking\r\n        bookings[bookingCounter] = Booking({\r\n            traveler: msg.sender,\r\n            flightId: _flightId,\r\n            passengers: _passengers,\r\n            totalPrice: _tokenAmount,\r\n            bookingTime: block.timestamp,\r\n            isRefunded: false\r\n        });\r\n\r\n        // Update available seats\r\n        flight.availableSeats -= _passengers;\r\n\r\n        emit BookingCreated(bookingCounter, msg.sender, _flightId, _passengers);\r\n        bookingCounter++;\r\n    }\r\n\r\n    /**\r\n     * @dev Refund a booking\r\n     * @param _bookingId Booking ID\r\n     */\r\n    function refundBooking(uint256 _bookingId) external onlyOwner {\r\n        Booking storage booking = bookings[_bookingId];\r\n        require(booking.traveler != address(0), \"Booking does not exist\");\r\n        require(!booking.isRefunded, \"Booking already refunded\");\r\n\r\n        // Mark as refunded\r\n        booking.isRefunded = true;\r\n\r\n        // Restore available seats\r\n        Flight storage flight = flights[booking.flightId];\r\n        flight.availableSeats += booking.passengers;\r\n\r\n        // Transfer ETH back to traveler\r\n        payable(booking.traveler).transfer(booking.totalPrice);\r\n\r\n        emit BookingRefunded(_bookingId);\r\n    }\r\n\r\n    /**\r\n     * @dev Add a supported ERC20 token\r\n     * @param _tokenAddress Address of the ERC20 token\r\n     */\r\n    function addSupportedToken(address _tokenAddress) external onlyOwner {\r\n        supportedTokens[_tokenAddress] = true;\r\n        emit TokenAdded(_tokenAddress);\r\n    }\r\n\r\n    /**\r\n     * @dev Remove a supported ERC20 token\r\n     * @param _tokenAddress Address of the ERC20 token\r\n     */\r\n    function removeSupportedToken(address _tokenAddress) external onlyOwner {\r\n        supportedTokens[_tokenAddress] = false;\r\n        emit TokenRemoved(_tokenAddress);\r\n    }\r\n\r\n    /**\r\n     * @dev Get all flight IDs\r\n     * @return Array of flight IDs\r\n     */\r\n    function getAllFlightIds() external view returns (string[] memory) {\r\n        return flightIds;\r\n    }\r\n\r\n    /**\r\n     * @dev Get active flights\r\n     * @return Array of active flight IDs\r\n     */\r\n    function getActiveFlights() external view returns (string[] memory) {\r\n        uint256 activeCount = 0;\r\n\r\n        // Count active flights\r\n        for (uint256 i = 0; i < flightIds.length; i++) {\r\n            if (flights[flightIds[i]].isActive) {\r\n                activeCount++;\r\n            }\r\n        }\r\n\r\n        // Create array of active flight IDs\r\n        string[] memory activeFlights = new string[](activeCount);\r\n        uint256 index = 0;\r\n\r\n        for (uint256 i = 0; i < flightIds.length; i++) {\r\n            if (flights[flightIds[i]].isActive) {\r\n                activeFlights[index] = flightIds[i];\r\n                index++;\r\n            }\r\n        }\r\n\r\n        return activeFlights;\r\n    }\r\n\r\n    /**\r\n     * @dev Get a user's bookings\r\n     * @param _traveler Address of the traveler\r\n     * @return Array of booking IDs\r\n     */\r\n    function getUserBookings(\r\n        address _traveler\r\n    ) external view returns (uint256[] memory) {\r\n        uint256 bookingCount = 0;\r\n\r\n        // Count user's bookings\r\n        for (uint256 i = 1; i < bookingCounter; i++) {\r\n            if (bookings[i].traveler == _traveler) {\r\n                bookingCount++;\r\n            }\r\n        }\r\n\r\n        // Create array of booking IDs\r\n        uint256[] memory userBookings = new uint256[](bookingCount);\r\n        uint256 index = 0;\r\n\r\n        for (uint256 i = 1; i < bookingCounter; i++) {\r\n            if (bookings[i].traveler == _traveler) {\r\n                userBookings[index] = i;\r\n                index++;\r\n            }\r\n        }\r\n\r\n        return userBookings;\r\n    }\r\n\r\n    /**\r\n     * @dev Withdraw ETH from the contract\r\n     * @param _amount Amount to withdraw\r\n     */\r\n    function withdrawEth(uint256 _amount) external onlyOwner {\r\n        require(_amount <= address(this).balance, \"Insufficient balance\");\r\n        payable(owner()).transfer(_amount);\r\n    }\r\n\r\n    /**\r\n     * @dev Withdraw ERC20 tokens from the contract\r\n     * @param _tokenAddress Address of the ERC20 token\r\n     * @param _amount Amount to withdraw\r\n     */\r\n    function withdrawTokens(\r\n        address _tokenAddress,\r\n        uint256 _amount\r\n    ) external onlyOwner {\r\n        IERC20 token = IERC20(_tokenAddress);\r\n        require(\r\n            _amount <= token.balanceOf(address(this)),\r\n            \"Insufficient token balance\"\r\n        );\r\n        require(token.transfer(owner(), _amount), \"Token transfer failed\");\r\n    }\r\n}\r\n",
  "sourcePath": "/mnt/c/Users/ritik/Desktop/crypto-travel/src/contracts/FlightBookingContract.sol",
  "compiler": {
    "name": "solc",
    "version": "0.8.17+commit.8df45f5f.Emscripten.clang"
  },
  "schemaVersion": "3.4.16",
  "updatedAt": "2025-03-16T17:31:50.449Z",
  "devdoc": {
    "details": "Manages flight bookings with cryptocurrency payments",
    "kind": "dev",
    "methods": {
      "addFlight(string,string,string,string,string,string,uint256,uint256)": {
        "details": "Add a new flight",
        "params": {
          "_arrivalCity": "Arrival city",
          "_arrivalTime": "Arrival time",
          "_availableSeats": "Number of available seats",
          "_date": "Flight date",
          "_departureCity": "Departure city",
          "_departureTime": "Departure time",
          "_id": "Flight ID",
          "_priceInWei": "Price in Wei"
        }
      },
      "addSupportedToken(address)": {
        "details": "Add a supported ERC20 token",
        "params": {
          "_tokenAddress": "Address of the ERC20 token"
        }
      },
      "bookFlightWithEth(string,uint256)": {
        "details": "Book a flight with ETH",
        "params": {
          "_flightId": "Flight ID",
          "_passengers": "Number of passengers"
        }
      },
      "bookFlightWithToken(string,uint256,address,uint256)": {
        "details": "Book a flight with ERC20 token",
        "params": {
          "_flightId": "Flight ID",
          "_passengers": "Number of passengers",
          "_tokenAddress": "Address of the ERC20 token",
          "_tokenAmount": "Amount of tokens to pay"
        }
      },
      "constructor": {
        "details": "Constructor"
      },
      "getActiveFlights()": {
        "details": "Get active flights",
        "returns": {
          "_0": "Array of active flight IDs"
        }
      },
      "getAllFlightIds()": {
        "details": "Get all flight IDs",
        "returns": {
          "_0": "Array of flight IDs"
        }
      },
      "getUserBookings(address)": {
        "details": "Get a user's bookings",
        "params": {
          "_traveler": "Address of the traveler"
        },
        "returns": {
          "_0": "Array of booking IDs"
        }
      },
      "owner()": {
        "details": "Returns the address of the current owner."
      },
      "refundBooking(uint256)": {
        "details": "Refund a booking",
        "params": {
          "_bookingId": "Booking ID"
        }
      },
      "removeFlight(string)": {
        "details": "Remove a flight",
        "params": {
          "_id": "Flight ID"
        }
      },
      "removeSupportedToken(address)": {
        "details": "Remove a supported ERC20 token",
        "params": {
          "_tokenAddress": "Address of the ERC20 token"
        }
      },
      "renounceOwnership()": {
        "details": "Leaves the contract without owner. It will not be possible to call `onlyOwner` functions anymore. Can only be called by the current owner. NOTE: Renouncing ownership will leave the contract without an owner, thereby removing any functionality that is only available to the owner."
      },
      "transferOwnership(address)": {
        "details": "Transfers ownership of the contract to a new account (`newOwner`). Can only be called by the current owner."
      },
      "updateFlight(string,uint256,uint256,bool)": {
        "details": "Update an existing flight",
        "params": {
          "_availableSeats": "New number of available seats",
          "_id": "Flight ID",
          "_isActive": "Whether the flight is active",
          "_priceInWei": "New price in Wei"
        }
      },
      "withdrawEth(uint256)": {
        "details": "Withdraw ETH from the contract",
        "params": {
          "_amount": "Amount to withdraw"
        }
      },
      "withdrawTokens(address,uint256)": {
        "details": "Withdraw ERC20 tokens from the contract",
        "params": {
          "_amount": "Amount to withdraw",
          "_tokenAddress": "Address of the ERC20 token"
        }
      }
    },
    "title": "FlightBookingContract",
    "version": 1
  },
  "userdoc": {
    "kind": "user",
    "methods": {},
    "version": 1
  }
}